{
  "contractName": "TicTacToe",
  "abi": [
    {
      "constant": true,
      "inputs": [],
      "name": "getPlayer1",
      "outputs": [
        {
          "name": "",
          "type": "address"
        }
      ],
      "payable": false,
      "stateMutability": "view",
      "type": "function"
    },
    {
      "constant": true,
      "inputs": [],
      "name": "getPlayer2",
      "outputs": [
        {
          "name": "",
          "type": "address"
        }
      ],
      "payable": false,
      "stateMutability": "view",
      "type": "function"
    },
    {
      "constant": true,
      "inputs": [],
      "name": "getBoard",
      "outputs": [
        {
          "name": "",
          "type": "address[3][3]"
        }
      ],
      "payable": false,
      "stateMutability": "view",
      "type": "function"
    },
    {
      "constant": false,
      "inputs": [
        {
          "name": "x",
          "type": "uint8"
        },
        {
          "name": "y",
          "type": "uint8"
        }
      ],
      "name": "setStone",
      "outputs": [],
      "payable": false,
      "stateMutability": "nonpayable",
      "type": "function"
    },
    {
      "constant": false,
      "inputs": [],
      "name": "joinGame",
      "outputs": [],
      "payable": true,
      "stateMutability": "payable",
      "type": "function"
    },
    {
      "constant": false,
      "inputs": [],
      "name": "withdrawWin",
      "outputs": [],
      "payable": false,
      "stateMutability": "nonpayable",
      "type": "function"
    },
    {
      "inputs": [],
      "payable": true,
      "stateMutability": "payable",
      "type": "constructor"
    },
    {
      "anonymous": false,
      "inputs": [
        {
          "indexed": false,
          "name": "_winner",
          "type": "address"
        }
      ],
      "name": "GameOverWithWin",
      "type": "event"
    },
    {
      "anonymous": false,
      "inputs": [
        {
          "indexed": false,
          "name": "_player1",
          "type": "address"
        },
        {
          "indexed": false,
          "name": "player2",
          "type": "address"
        }
      ],
      "name": "GameOverWithDraw",
      "type": "event"
    },
    {
      "anonymous": false,
      "inputs": [
        {
          "indexed": true,
          "name": "_player",
          "type": "address"
        }
      ],
      "name": "NextPlayer",
      "type": "event"
    },
    {
      "anonymous": false,
      "inputs": [
        {
          "indexed": false,
          "name": "_player",
          "type": "address"
        }
      ],
      "name": "PlayerJoined",
      "type": "event"
    },
    {
      "anonymous": false,
      "inputs": [
        {
          "indexed": false,
          "name": "_player",
          "type": "address"
        },
        {
          "indexed": false,
          "name": "_amountInWei",
          "type": "uint256"
        }
      ],
      "name": "PayOutSuccess",
      "type": "event"
    }
  ],
  "bytecode": "0x60606040526000600960006101000a81548160ff0219169083151502179055506000600960016101000a81548160ff0219169083151502179055506000600960026101000a81548160ff021916908360ff160217905550670de0b6b3a76400003414151561006c57600080fd5b60408051908101604052803373ffffffffffffffffffffffffffffffffffffffff1681526020016000815250600a60008201518160000160006101000a81548173ffffffffffffffffffffffffffffffffffffffff021916908373ffffffffffffffffffffffffffffffffffffffff16021790555060208201518160010155905050611438806100fd6000396000f300606060405260043610610078576000357c0100000000000000000000000000000000000000000000000000000000900463ffffffff16806301ab2a661461007d5780631bb6cb47146100d25780633264a34b146101275780637d3f90741461019b578063d4f77b1c146101cd578063fb815503146101d7575b600080fd5b341561008857600080fd5b6100906101ec565b604051808273ffffffffffffffffffffffffffffffffffffffff1673ffffffffffffffffffffffffffffffffffffffff16815260200191505060405180910390f35b34156100dd57600080fd5b6100e5610219565b604051808273ffffffffffffffffffffffffffffffffffffffff1673ffffffffffffffffffffffffffffffffffffffff16815260200191505060405180910390f35b341561013257600080fd5b61013a610246565b604051808260036000925b8184101561018b5782846020020151600360200280838360005b8381101561017a57808201518184015260208101905061015f565b505050509050019260010192610145565b9250505091505060405180910390f35b34156101a657600080fd5b6101cb600480803560ff1690602001909190803560ff169060200190919050506102ff565b005b6101d5610b40565b005b34156101e257600080fd5b6101ea610dc1565b005b6000600a60000160009054906101000a900473ffffffffffffffffffffffffffffffffffffffff16905090565b6000600c60000160009054906101000a900473ffffffffffffffffffffffffffffffffffffffff16905090565b61024e61139f565b6000600380602002604051908101604052809291906000905b828210156102f6578382600302016003806020026040519081016040528092919082600380156102e2576020028201915b8160009054906101000a900473ffffffffffffffffffffffffffffffffffffffff1673ffffffffffffffffffffffffffffffffffffffff1681526020019060010190808311610298575b505050505081526020019060010190610267565b50505050905090565b600060038360ff16108015610317575060038260ff16105b151561031f57fe5b600073ffffffffffffffffffffffffffffffffffffffff1660008460ff1660038110151561034957fe5b600302018360ff1660038110151561035d57fe5b0160009054906101000a900473ffffffffffffffffffffffffffffffffffffffff1673ffffffffffffffffffffffffffffffffffffffff1614151561039e57fe5b60011515600960019054906101000a900460ff161515141515156103be57fe5b60011515600960009054906101000a900460ff161515141515156103de57fe5b6001600960006101000a81548160ff021916908315150217905550600e60009054906101000a900473ffffffffffffffffffffffffffffffffffffffff1673ffffffffffffffffffffffffffffffffffffffff163373ffffffffffffffffffffffffffffffffffffffff1614151561045557600080fd5b600e60009054906101000a900473ffffffffffffffffffffffffffffffffffffffff1660008460ff1660038110151561048a57fe5b600302018360ff1660038110151561049e57fe5b0160006101000a81548173ffffffffffffffffffffffffffffffffffffffff021916908373ffffffffffffffffffffffffffffffffffffffff1602179055506009600281819054906101000a900460ff168092919060010191906101000a81548160ff021916908360ff16021790555050600090505b600360ff168160ff16101561061157600e60009054906101000a900473ffffffffffffffffffffffffffffffffffffffff1673ffffffffffffffffffffffffffffffffffffffff1660008460ff1660038110151561056e57fe5b600302018260ff1660038110151561058257fe5b0160009054906101000a900473ffffffffffffffffffffffffffffffffffffffff1673ffffffffffffffffffffffffffffffffffffffff161415156105c657610611565b600160030360ff168160ff16141561060457610603600e60009054906101000a900473ffffffffffffffffffffffffffffffffffffffff16610f59565b5b8080600101915050610514565b600090505b600360ff168160ff16101561071357600e60009054906101000a900473ffffffffffffffffffffffffffffffffffffffff1673ffffffffffffffffffffffffffffffffffffffff1660008260ff1660038110151561067057fe5b600302018360ff1660038110151561068457fe5b0160009054906101000a900473ffffffffffffffffffffffffffffffffffffffff1673ffffffffffffffffffffffffffffffffffffffff161415156106c857610713565b600160030360ff168160ff16141561070657610705600e60009054906101000a900473ffffffffffffffffffffffffffffffffffffffff16610f59565b5b8080600101915050610616565b8160ff168360ff16141561082457600090505b600360ff168160ff16101561082357600e60009054906101000a900473ffffffffffffffffffffffffffffffffffffffff1673ffffffffffffffffffffffffffffffffffffffff1660008260ff1660038110151561078057fe5b600302018260ff1660038110151561079457fe5b0160009054906101000a900473ffffffffffffffffffffffffffffffffffffffff1673ffffffffffffffffffffffffffffffffffffffff161415156107d857610823565b600160030360ff168160ff16141561081657610815600e60009054906101000a900473ffffffffffffffffffffffffffffffffffffffff16610f59565b5b8080600101915050610726565b5b600160030360ff1682840160ff16141561094157600090505b600360ff168160ff16101561094057600e60009054906101000a900473ffffffffffffffffffffffffffffffffffffffff1673ffffffffffffffffffffffffffffffffffffffff1660008260ff1660038110151561089757fe5b600302018260016003030360ff166003811015156108b157fe5b0160009054906101000a900473ffffffffffffffffffffffffffffffffffffffff1673ffffffffffffffffffffffffffffffffffffffff161415156108f557610940565b600160030360ff168160ff16141561093357610932600e60009054906101000a900473ffffffffffffffffffffffffffffffffffffffff16610f59565b5b808060010191505061083d565b5b6001600260030a0360ff16600960029054906101000a900460ff1660ff16141561096e5761096d61114b565b5b600a60000160009054906101000a900473ffffffffffffffffffffffffffffffffffffffff1673ffffffffffffffffffffffffffffffffffffffff16600e60009054906101000a900473ffffffffffffffffffffffffffffffffffffffff1673ffffffffffffffffffffffffffffffffffffffff161415610a5457600c60000160009054906101000a900473ffffffffffffffffffffffffffffffffffffffff16600e60006101000a81548173ffffffffffffffffffffffffffffffffffffffff021916908373ffffffffffffffffffffffffffffffffffffffff160217905550610abb565b600a60000160009054906101000a900473ffffffffffffffffffffffffffffffffffffffff16600e60006101000a81548173ffffffffffffffffffffffffffffffffffffffff021916908373ffffffffffffffffffffffffffffffffffffffff1602179055505b600e60009054906101000a900473ffffffffffffffffffffffffffffffffffffffff1673ffffffffffffffffffffffffffffffffffffffff167f637351f91da430278368fb3e486c8c3da47b2e6ce4d28b2c404cb044702ca7e160405160405180910390a26000600960006101000a81548160ff021916908315150217905550505050565b670de0b6b3a764000034141515610b5657600080fd5b600073ffffffffffffffffffffffffffffffffffffffff16600c60000160009054906101000a900473ffffffffffffffffffffffffffffffffffffffff1673ffffffffffffffffffffffffffffffffffffffff16141515610bb357fe5b60408051908101604052803373ffffffffffffffffffffffffffffffffffffffff1681526020016000815250600c60008201518160000160006101000a81548173ffffffffffffffffffffffffffffffffffffffff021916908373ffffffffffffffffffffffffffffffffffffffff160217905550602082015181600101559050506000600243811515610c4357fe5b061415610c905733600e60006101000a81548173ffffffffffffffffffffffffffffffffffffffff021916908373ffffffffffffffffffffffffffffffffffffffff160217905550610cf7565b600a60000160009054906101000a900473ffffffffffffffffffffffffffffffffffffffff16600e60006101000a81548173ffffffffffffffffffffffffffffffffffffffff021916908373ffffffffffffffffffffffffffffffffffffffff1602179055505b600e60009054906101000a900473ffffffffffffffffffffffffffffffffffffffff1673ffffffffffffffffffffffffffffffffffffffff167f637351f91da430278368fb3e486c8c3da47b2e6ce4d28b2c404cb044702ca7e160405160405180910390a27f31e760aa525306aba638a784082a013b6a1cc0a9a1789f3f22281c0453b10b1f33604051808273ffffffffffffffffffffffffffffffffffffffff1673ffffffffffffffffffffffffffffffffffffffff16815260200191505060405180910390a1565b600a60000160009054906101000a900473ffffffffffffffffffffffffffffffffffffffff1673ffffffffffffffffffffffffffffffffffffffff163373ffffffffffffffffffffffffffffffffffffffff161415610e8957600a60000160009054906101000a900473ffffffffffffffffffffffffffffffffffffffff1673ffffffffffffffffffffffffffffffffffffffff166108fc600a600101549081150290604051600060405180830381858888f193505050501515610e8457600080fd5b610f57565b600c60000160009054906101000a900473ffffffffffffffffffffffffffffffffffffffff1673ffffffffffffffffffffffffffffffffffffffff163373ffffffffffffffffffffffffffffffffffffffff161415610f5157600c60000160009054906101000a900473ffffffffffffffffffffffffffffffffffffffff1673ffffffffffffffffffffffffffffffffffffffff166108fc600c600101549081150290604051600060405180830381858888f193505050501515610f4c57600080fd5b610f56565b600080fd5b5b565b60006001600960016101000a81548160ff0219169083151502179055503073ffffffffffffffffffffffffffffffffffffffff16319050600115158273ffffffffffffffffffffffffffffffffffffffff166108fc839081150290604051600060405180830381858888f19350505050151514151561107857600a60000160009054906101000a900473ffffffffffffffffffffffffffffffffffffffff1673ffffffffffffffffffffffffffffffffffffffff168273ffffffffffffffffffffffffffffffffffffffff161415611051573073ffffffffffffffffffffffffffffffffffffffff1631600a60010181905550611073565b3073ffffffffffffffffffffffffffffffffffffffff1631600c600101819055505b611147565b7f90bf37582a972f42d976d59d0975eb37c8195d070c9229378de14a6da715d0238282604051808373ffffffffffffffffffffffffffffffffffffffff1673ffffffffffffffffffffffffffffffffffffffff1681526020018281526020019250505060405180910390a17f8245a3876d42d9b0bdb7f24184c03fc24e3d8a079f492b1ec9ceae70b366edf982604051808273ffffffffffffffffffffffffffffffffffffffff1673ffffffffffffffffffffffffffffffffffffffff16815260200191505060405180910390a15b5050565b60006001600960016101000a81548160ff02191690831515021790555060023073ffffffffffffffffffffffffffffffffffffffff163181151561118b57fe5b04905060011515600a60000160009054906101000a900473ffffffffffffffffffffffffffffffffffffffff1673ffffffffffffffffffffffffffffffffffffffff166108fc839081150290604051600060405180830381858888f1935050505015151415156112045780600a60010181905550611295565b7f90bf37582a972f42d976d59d0975eb37c8195d070c9229378de14a6da715d023600a60000160009054906101000a900473ffffffffffffffffffffffffffffffffffffffff1682604051808373ffffffffffffffffffffffffffffffffffffffff1673ffffffffffffffffffffffffffffffffffffffff1681526020018281526020019250505060405180910390a15b60011515600c60000160009054906101000a900473ffffffffffffffffffffffffffffffffffffffff1673ffffffffffffffffffffffffffffffffffffffff166108fc839081150290604051600060405180830381858888f19350505050151514151561130b5780600c6001018190555061139c565b7f90bf37582a972f42d976d59d0975eb37c8195d070c9229378de14a6da715d023600c60000160009054906101000a900473ffffffffffffffffffffffffffffffffffffffff1682604051808373ffffffffffffffffffffffffffffffffffffffff1673ffffffffffffffffffffffffffffffffffffffff1681526020018281526020019250505060405180910390a15b50565b610120604051908101604052806003905b6113b86113ce565b8152602001906001900390816113b05790505090565b6060604051908101604052806003905b600073ffffffffffffffffffffffffffffffffffffffff168152602001906001900390816113de57905050905600a165627a7a72305820153d6cbd24597c0cfe96b6cfc5166e080f723906f24683011fa0c80a81811ba90029",
  "source": "pragma solidity ^0.4.15;\r\n\r\ncontract TicTacToe {\r\n    uint8 constant boardSize = 3;\r\n    uint constant gameCost = 1 ether;\r\n\r\n    address[3][3] board;\r\n\r\n    bool private moveActive = false;\r\n    bool private gameEnded = false;\r\n    uint8 private moveCount = 0;\r\n\r\n    event GameOverWithWin(address _winner);\r\n    event GameOverWithDraw(address _player1, address player2);\r\n    event NextPlayer(address indexed _player);\r\n    event PlayerJoined(address _player);\r\n    event PayOutSuccess(address _player, uint _amountInWei);\r\n\r\n\r\n\r\n    struct Player {\r\n        address playerAddress;\r\n        uint balanceToWithdraw;\r\n    }\r\n    Player player1;\r\n    Player player2;\r\n\r\n    address activePlayer;\r\n\r\n    function TicTacToe() payable public {\r\n        require(msg.value == gameCost);\r\n        player1 = Player(msg.sender, 0);\r\n    }\r\n\r\n    function getPlayer1() public view returns(address) {\r\n      return player1.playerAddress;\r\n    }\r\n    function getPlayer2() public view returns(address) {\r\n      return player2.playerAddress;\r\n    }\r\n\r\n    function joinGame() payable public {\r\n        require(msg.value == gameCost);\r\n        assert(player2.playerAddress == address(0));\r\n        player2 = Player(msg.sender, 0);\r\n        if(block.number % 2 == 0) {\r\n            activePlayer = msg.sender;\r\n        } else {\r\n            activePlayer = player1.playerAddress;\r\n        }\r\n\r\n        NextPlayer(activePlayer);\r\n        PlayerJoined(msg.sender);\r\n    }\r\n\r\n    function withdrawWin() public {\r\n        if(msg.sender == player1.playerAddress) {\r\n            player1.playerAddress.transfer(player1.balanceToWithdraw);\r\n        } else if (msg.sender == player2.playerAddress) {\r\n            player2.playerAddress.transfer(player2.balanceToWithdraw);\r\n        } else {\r\n            revert();\r\n        }\r\n\r\n    }\r\n\r\n    function getBoard() public view returns (address[3][3]) {\r\n        return board;\r\n    }\r\n\r\n    function setWinner(address _winner) private {\r\n        gameEnded = true;\r\n\r\n        uint balanceToSend = this.balance;\r\n\r\n        if(_winner.send(balanceToSend) != true) {\r\n            if(_winner == player1.playerAddress) {\r\n                player1.balanceToWithdraw = this.balance;\r\n            } else {\r\n                player2.balanceToWithdraw = this.balance;\r\n            }\r\n        } else {\r\n            PayOutSuccess(_winner, balanceToSend);\r\n            GameOverWithWin(_winner);\r\n        }\r\n    }\r\n\r\n    function setDraw() private {\r\n        gameEnded = true;\r\n        uint balanceToSendEachPlayer = this.balance / 2;\r\n        if(player1.playerAddress.send(balanceToSendEachPlayer) != true) {\r\n               player1.balanceToWithdraw = balanceToSendEachPlayer;\r\n        } else {\r\n                PayOutSuccess(player1.playerAddress, balanceToSendEachPlayer);\r\n        }\r\n\r\n        if(player2.playerAddress.send(balanceToSendEachPlayer) != true) {\r\n               player2.balanceToWithdraw = balanceToSendEachPlayer;\r\n        } else {\r\n                PayOutSuccess(player2.playerAddress, balanceToSendEachPlayer);\r\n        }\r\n\r\n    }\r\n\r\n    function setStone(uint8 x, uint8 y) public {\r\n        assert(x < 3 && y < 3);\r\n        assert(board[x][y] == address(0));\r\n        assert(gameEnded != true); //game still on?\r\n\r\n        /**\r\n         * Double Entry Attack Prevention\r\n         * */\r\n        assert(moveActive != true);\r\n        moveActive = true;\r\n\r\n\r\n        require(msg.sender == activePlayer);\r\n        board[x][y] = activePlayer;\r\n        moveCount++;\r\n\r\n\r\n         //check end conditions\r\n\r\n        //check column\r\n        for(uint8 i = 0; i < boardSize; i++){\r\n            if(board[x][i] != activePlayer) {\r\n                break;\r\n            }\r\n            if(i == boardSize-1){\r\n                setWinner(activePlayer);\r\n            }\r\n        }\r\n\r\n        //check row\r\n        for(i = 0; i < boardSize; i++){\r\n            if(board[i][y] != activePlayer) {\r\n                break;\r\n            }\r\n            if(i == boardSize-1){\r\n                setWinner(activePlayer);\r\n            }\r\n        }\r\n\r\n        //check diagonale\r\n        if(x == y){\r\n            for(i = 0; i < boardSize; i++){\r\n                if(board[i][i] != activePlayer) {\r\n                    break;\r\n                }\r\n                if(i == boardSize-1){\r\n                    setWinner(activePlayer);\r\n                }\r\n            }\r\n        }\r\n\r\n        //check counter diagonale\r\n        if(x + y == boardSize - 1){\r\n            for(i = 0; i < boardSize; i++){\r\n                if(board[i][(boardSize-1)-i] != activePlayer) {\r\n                    break;\r\n                }\r\n                if(i == boardSize-1){\r\n                    setWinner(activePlayer);\r\n                }\r\n            }\r\n        }\r\n\r\n        //check draw\r\n        if(moveCount == (boardSize**2 - 1)){\r\n            setDraw();\r\n        }\r\n\r\n        //determine the next player\r\n        if(activePlayer == player1.playerAddress) {\r\n            activePlayer = player2.playerAddress;\r\n        } else {\r\n            activePlayer = player1.playerAddress;\r\n        }\r\n        NextPlayer(activePlayer);\r\n        //unlock\r\n        moveActive = false;\r\n    }\r\n}\r\n",
  "sourcePath": "D:\\Courses\\ethereum4-tictactoe\\contracts\\TicTacToe.sol",
  "compiler": {
    "name": "solc",
    "version": "0.4.18+commit.9cf6e910.Emscripten.clang"
  },
  "schemaVersion": "1.0.1",
  "updatedAt": "2018-01-09T11:09:16.755Z"
}