{
  "contractName": "TicTacToe",
  "abi": [
    {
      "constant": true,
      "inputs": [],
      "name": "getPlayer1",
      "outputs": [
        {
          "name": "",
          "type": "address"
        }
      ],
      "payable": false,
      "stateMutability": "view",
      "type": "function"
    },
    {
      "constant": true,
      "inputs": [],
      "name": "getPlayer2",
      "outputs": [
        {
          "name": "",
          "type": "address"
        }
      ],
      "payable": false,
      "stateMutability": "view",
      "type": "function"
    },
    {
      "constant": true,
      "inputs": [],
      "name": "getBoard",
      "outputs": [
        {
          "name": "",
          "type": "address[3][3]"
        }
      ],
      "payable": false,
      "stateMutability": "view",
      "type": "function"
    },
    {
      "constant": false,
      "inputs": [],
      "name": "emergencyCashoutAfterTimeout",
      "outputs": [],
      "payable": false,
      "stateMutability": "nonpayable",
      "type": "function"
    },
    {
      "constant": false,
      "inputs": [
        {
          "name": "x",
          "type": "uint8"
        },
        {
          "name": "y",
          "type": "uint8"
        }
      ],
      "name": "setStone",
      "outputs": [],
      "payable": false,
      "stateMutability": "nonpayable",
      "type": "function"
    },
    {
      "constant": false,
      "inputs": [],
      "name": "joinGame",
      "outputs": [],
      "payable": true,
      "stateMutability": "payable",
      "type": "function"
    },
    {
      "constant": false,
      "inputs": [],
      "name": "withdrawWin",
      "outputs": [],
      "payable": false,
      "stateMutability": "nonpayable",
      "type": "function"
    },
    {
      "inputs": [],
      "payable": true,
      "stateMutability": "payable",
      "type": "constructor"
    },
    {
      "anonymous": false,
      "inputs": [
        {
          "indexed": false,
          "name": "_winner",
          "type": "address"
        }
      ],
      "name": "GameOverWithWin",
      "type": "event"
    },
    {
      "anonymous": false,
      "inputs": [
        {
          "indexed": false,
          "name": "_player1",
          "type": "address"
        },
        {
          "indexed": false,
          "name": "player2",
          "type": "address"
        }
      ],
      "name": "GameOverWithDraw",
      "type": "event"
    },
    {
      "anonymous": false,
      "inputs": [
        {
          "indexed": true,
          "name": "_player",
          "type": "address"
        }
      ],
      "name": "NextPlayer",
      "type": "event"
    },
    {
      "anonymous": false,
      "inputs": [
        {
          "indexed": false,
          "name": "_player",
          "type": "address"
        }
      ],
      "name": "PlayerJoined",
      "type": "event"
    },
    {
      "anonymous": false,
      "inputs": [
        {
          "indexed": false,
          "name": "_player",
          "type": "address"
        },
        {
          "indexed": false,
          "name": "_amountInWei",
          "type": "uint256"
        }
      ],
      "name": "PayOutSuccess",
      "type": "event"
    }
  ],
  "bytecode": "0x60606040526000600960006101000a81548160ff0219169083151502179055506000600960016101000a81548160ff0219169083151502179055506000600960026101000a81548160ff021916908360ff16021790555067016345785d8a00003414151561006c57600080fd5b60408051908101604052803373ffffffffffffffffffffffffffffffffffffffff1681526020016000815250600b60008201518160000160006101000a81548173ffffffffffffffffffffffffffffffffffffffff021916908373ffffffffffffffffffffffffffffffffffffffff1602179055506020820151816001015590505060b44201600a8190555061158e806101076000396000f300606060405260043610610083576000357c0100000000000000000000000000000000000000000000000000000000900463ffffffff16806301ab2a66146100885780631bb6cb47146100dd5780633264a34b1461013257806334d5e1d0146101a65780637d3f9074146101bb578063d4f77b1c146101ed578063fb815503146101f7575b600080fd5b341561009357600080fd5b61009b61020c565b604051808273ffffffffffffffffffffffffffffffffffffffff1673ffffffffffffffffffffffffffffffffffffffff16815260200191505060405180910390f35b34156100e857600080fd5b6100f0610239565b604051808273ffffffffffffffffffffffffffffffffffffffff1673ffffffffffffffffffffffffffffffffffffffff16815260200191505060405180910390f35b341561013d57600080fd5b610145610266565b604051808260036000925b818410156101965782846020020151600360200280838360005b8381101561018557808201518184015260208101905061016a565b505050509050019260010192610150565b9250505091505060405180910390f35b34156101b157600080fd5b6101b961031f565b005b34156101c657600080fd5b6101eb600480803560ff1690602001909190803560ff16906020019091905050610355565b005b6101f5610bb2565b005b341561020257600080fd5b61020a610e33565b005b6000600b60000160009054906101000a900473ffffffffffffffffffffffffffffffffffffffff16905090565b6000600d60000160009054906101000a900473ffffffffffffffffffffffffffffffffffffffff16905090565b61026e6114f5565b6000600380602002604051908101604052809291906000905b8282101561031657838260030201600380602002604051908101604052809291908260038015610302576020028201915b8160009054906101000a900473ffffffffffffffffffffffffffffffffffffffff1673ffffffffffffffffffffffffffffffffffffffff16815260200190600101908083116102b8575b505050505081526020019060010190610287565b50505050905090565b42600a5410151561032c57fe5b60001515600960019054906101000a900460ff16151514151561034b57fe5b610353610fcb565b565b600060038360ff1610801561036d575060038260ff16105b151561037557fe5b600073ffffffffffffffffffffffffffffffffffffffff1660008460ff1660038110151561039f57fe5b600302018360ff166003811015156103b357fe5b0160009054906101000a900473ffffffffffffffffffffffffffffffffffffffff1673ffffffffffffffffffffffffffffffffffffffff161415156103f457fe5b60011515600960019054906101000a900460ff1615151415151561041457fe5b60011515600960009054906101000a900460ff1615151415151561043457fe5b6001600960006101000a81548160ff021916908315150217905550600f60009054906101000a900473ffffffffffffffffffffffffffffffffffffffff1673ffffffffffffffffffffffffffffffffffffffff163373ffffffffffffffffffffffffffffffffffffffff161415156104ab57600080fd5b600f60009054906101000a900473ffffffffffffffffffffffffffffffffffffffff1660008460ff166003811015156104e057fe5b600302018360ff166003811015156104f457fe5b0160006101000a81548173ffffffffffffffffffffffffffffffffffffffff021916908373ffffffffffffffffffffffffffffffffffffffff1602179055506009600281819054906101000a900460ff168092919060010191906101000a81548160ff021916908360ff16021790555050600090505b600360ff168160ff16101561066b57600f60009054906101000a900473ffffffffffffffffffffffffffffffffffffffff1673ffffffffffffffffffffffffffffffffffffffff1660008460ff166003811015156105c457fe5b600302018260ff166003811015156105d857fe5b0160009054906101000a900473ffffffffffffffffffffffffffffffffffffffff1673ffffffffffffffffffffffffffffffffffffffff1614151561061c5761066b565b600160030360ff168160ff16141561065e57610659600f60009054906101000a900473ffffffffffffffffffffffffffffffffffffffff16611303565b610bad565b808060010191505061056a565b600090505b600360ff168160ff16101561077157600f60009054906101000a900473ffffffffffffffffffffffffffffffffffffffff1673ffffffffffffffffffffffffffffffffffffffff1660008260ff166003811015156106ca57fe5b600302018360ff166003811015156106de57fe5b0160009054906101000a900473ffffffffffffffffffffffffffffffffffffffff1673ffffffffffffffffffffffffffffffffffffffff1614151561072257610771565b600160030360ff168160ff1614156107645761075f600f60009054906101000a900473ffffffffffffffffffffffffffffffffffffffff16611303565b610bad565b8080600101915050610670565b8160ff168360ff16141561088657600090505b600360ff168160ff16101561088557600f60009054906101000a900473ffffffffffffffffffffffffffffffffffffffff1673ffffffffffffffffffffffffffffffffffffffff1660008260ff166003811015156107de57fe5b600302018260ff166003811015156107f257fe5b0160009054906101000a900473ffffffffffffffffffffffffffffffffffffffff1673ffffffffffffffffffffffffffffffffffffffff1614151561083657610885565b600160030360ff168160ff16141561087857610873600f60009054906101000a900473ffffffffffffffffffffffffffffffffffffffff16611303565b610bad565b8080600101915050610784565b5b600160030360ff1682840160ff1614156109a757600090505b600360ff168160ff1610156109a657600f60009054906101000a900473ffffffffffffffffffffffffffffffffffffffff1673ffffffffffffffffffffffffffffffffffffffff1660008260ff166003811015156108f957fe5b600302018260016003030360ff1660038110151561091357fe5b0160009054906101000a900473ffffffffffffffffffffffffffffffffffffffff1673ffffffffffffffffffffffffffffffffffffffff16141515610957576109a6565b600160030360ff168160ff16141561099957610994600f60009054906101000a900473ffffffffffffffffffffffffffffffffffffffff16611303565b610bad565b808060010191505061089f565b5b600260030a60ff16600960029054906101000a900460ff1660ff1614156109d5576109d0610fcb565b610bad565b600b60000160009054906101000a900473ffffffffffffffffffffffffffffffffffffffff1673ffffffffffffffffffffffffffffffffffffffff16600f60009054906101000a900473ffffffffffffffffffffffffffffffffffffffff1673ffffffffffffffffffffffffffffffffffffffff161415610abb57600d60000160009054906101000a900473ffffffffffffffffffffffffffffffffffffffff16600f60006101000a81548173ffffffffffffffffffffffffffffffffffffffff021916908373ffffffffffffffffffffffffffffffffffffffff160217905550610b22565b600b60000160009054906101000a900473ffffffffffffffffffffffffffffffffffffffff16600f60006101000a81548173ffffffffffffffffffffffffffffffffffffffff021916908373ffffffffffffffffffffffffffffffffffffffff1602179055505b600f60009054906101000a900473ffffffffffffffffffffffffffffffffffffffff1673ffffffffffffffffffffffffffffffffffffffff167f637351f91da430278368fb3e486c8c3da47b2e6ce4d28b2c404cb044702ca7e160405160405180910390a26000600960006101000a81548160ff02191690831515021790555060b44201600a819055505b505050565b67016345785d8a000034141515610bc857600080fd5b600073ffffffffffffffffffffffffffffffffffffffff16600d60000160009054906101000a900473ffffffffffffffffffffffffffffffffffffffff1673ffffffffffffffffffffffffffffffffffffffff16141515610c2557fe5b60408051908101604052803373ffffffffffffffffffffffffffffffffffffffff1681526020016000815250600d60008201518160000160006101000a81548173ffffffffffffffffffffffffffffffffffffffff021916908373ffffffffffffffffffffffffffffffffffffffff160217905550602082015181600101559050506000600243811515610cb557fe5b061415610d025733600f60006101000a81548173ffffffffffffffffffffffffffffffffffffffff021916908373ffffffffffffffffffffffffffffffffffffffff160217905550610d69565b600b60000160009054906101000a900473ffffffffffffffffffffffffffffffffffffffff16600f60006101000a81548173ffffffffffffffffffffffffffffffffffffffff021916908373ffffffffffffffffffffffffffffffffffffffff1602179055505b600f60009054906101000a900473ffffffffffffffffffffffffffffffffffffffff1673ffffffffffffffffffffffffffffffffffffffff167f637351f91da430278368fb3e486c8c3da47b2e6ce4d28b2c404cb044702ca7e160405160405180910390a27f31e760aa525306aba638a784082a013b6a1cc0a9a1789f3f22281c0453b10b1f33604051808273ffffffffffffffffffffffffffffffffffffffff1673ffffffffffffffffffffffffffffffffffffffff16815260200191505060405180910390a1565b600b60000160009054906101000a900473ffffffffffffffffffffffffffffffffffffffff1673ffffffffffffffffffffffffffffffffffffffff163373ffffffffffffffffffffffffffffffffffffffff161415610efb57600b60000160009054906101000a900473ffffffffffffffffffffffffffffffffffffffff1673ffffffffffffffffffffffffffffffffffffffff166108fc600b600101549081150290604051600060405180830381858888f193505050501515610ef657600080fd5b610fc9565b600d60000160009054906101000a900473ffffffffffffffffffffffffffffffffffffffff1673ffffffffffffffffffffffffffffffffffffffff163373ffffffffffffffffffffffffffffffffffffffff161415610fc357600d60000160009054906101000a900473ffffffffffffffffffffffffffffffffffffffff1673ffffffffffffffffffffffffffffffffffffffff166108fc600d600101549081150290604051600060405180830381858888f193505050501515610fbe57600080fd5b610fc8565b600080fd5b5b565b60006001600960016101000a81548160ff021916908315150217905550600160023073ffffffffffffffffffffffffffffffffffffffff163181151561100d57fe5b0403905060011515600b60000160009054906101000a900473ffffffffffffffffffffffffffffffffffffffff1673ffffffffffffffffffffffffffffffffffffffff166108fc839081150290604051600060405180830381858888f1935050505015151415156110875780600b60010181905550611118565b7f90bf37582a972f42d976d59d0975eb37c8195d070c9229378de14a6da715d023600b60000160009054906101000a900473ffffffffffffffffffffffffffffffffffffffff1682604051808373ffffffffffffffffffffffffffffffffffffffff1673ffffffffffffffffffffffffffffffffffffffff1681526020018281526020019250505060405180910390a15b60011515600d60000160009054906101000a900473ffffffffffffffffffffffffffffffffffffffff1673ffffffffffffffffffffffffffffffffffffffff166108fc839081150290604051600060405180830381858888f19350505050151514151561118e5780600d6001018190555061121f565b7f90bf37582a972f42d976d59d0975eb37c8195d070c9229378de14a6da715d023600d60000160009054906101000a900473ffffffffffffffffffffffffffffffffffffffff1682604051808373ffffffffffffffffffffffffffffffffffffffff1673ffffffffffffffffffffffffffffffffffffffff1681526020018281526020019250505060405180910390a15b7f5985d2e8fa6fb3fad37433dd72ab148aa149fe74cfc2a395dd044ff8447344fd600b60000160009054906101000a900473ffffffffffffffffffffffffffffffffffffffff16600d60000160009054906101000a900473ffffffffffffffffffffffffffffffffffffffff16604051808373ffffffffffffffffffffffffffffffffffffffff1673ffffffffffffffffffffffffffffffffffffffff1681526020018273ffffffffffffffffffffffffffffffffffffffff1673ffffffffffffffffffffffffffffffffffffffff1681526020019250505060405180910390a150565b60006001600960016101000a81548160ff0219169083151502179055503073ffffffffffffffffffffffffffffffffffffffff16319050600115158273ffffffffffffffffffffffffffffffffffffffff166108fc839081150290604051600060405180830381858888f19350505050151514151561142257600b60000160009054906101000a900473ffffffffffffffffffffffffffffffffffffffff1673ffffffffffffffffffffffffffffffffffffffff168273ffffffffffffffffffffffffffffffffffffffff1614156113fb573073ffffffffffffffffffffffffffffffffffffffff1631600b6001018190555061141d565b3073ffffffffffffffffffffffffffffffffffffffff1631600d600101819055505b6114f1565b7f90bf37582a972f42d976d59d0975eb37c8195d070c9229378de14a6da715d0238282604051808373ffffffffffffffffffffffffffffffffffffffff1673ffffffffffffffffffffffffffffffffffffffff1681526020018281526020019250505060405180910390a17f8245a3876d42d9b0bdb7f24184c03fc24e3d8a079f492b1ec9ceae70b366edf982604051808273ffffffffffffffffffffffffffffffffffffffff1673ffffffffffffffffffffffffffffffffffffffff16815260200191505060405180910390a15b5050565b610120604051908101604052806003905b61150e611524565b8152602001906001900390816115065790505090565b6060604051908101604052806003905b600073ffffffffffffffffffffffffffffffffffffffff1681526020019060019003908161153457905050905600a165627a7a72305820066d746dea343635e36d1d58d55db98212f1c75bfafd81c00411e86d2296c5d60029",
  "source": "pragma solidity ^0.4.15;\r\n\r\ncontract TicTacToe {\r\n    uint8 constant boardSize = 3;\r\n    uint constant gameCost = 0.1 ether;\r\n\r\n    address[3][3] board;\r\n\r\n    bool private moveActive = false;\r\n    bool private gameEnded = false;\r\n    uint8 private moveCount = 0;\r\n\r\n    event GameOverWithWin(address _winner);\r\n    event GameOverWithDraw(address _player1, address player2);\r\n    event NextPlayer(address indexed _player);\r\n    event PlayerJoined(address _player);\r\n    event PayOutSuccess(address _player, uint _amountInWei);\r\n\r\n    uint gameValidUntil;\r\n\r\n\r\n\r\n    struct Player {\r\n        address playerAddress;\r\n        uint balanceToWithdraw;\r\n    }\r\n    Player player1;\r\n    Player player2;\r\n\r\n    address activePlayer;\r\n\r\n    function TicTacToe() payable public {\r\n        require(msg.value == gameCost);\r\n        player1 = Player(msg.sender, 0);\r\n        gameValidUntil = now + 3 minutes;\r\n    }\r\n\r\n    function getPlayer1() public view returns(address) {\r\n      return player1.playerAddress;\r\n    }\r\n    function getPlayer2() public view returns(address) {\r\n      return player2.playerAddress;\r\n    }\r\n\r\n    function joinGame() payable public {\r\n        require(msg.value == gameCost);\r\n        assert(player2.playerAddress == address(0));\r\n        player2 = Player(msg.sender, 0);\r\n        if(block.number % 2 == 0) {\r\n            activePlayer = msg.sender;\r\n        } else {\r\n            activePlayer = player1.playerAddress;\r\n        }\r\n\r\n        NextPlayer(activePlayer);\r\n        PlayerJoined(msg.sender);\r\n    }\r\n\r\n    function withdrawWin() public {\r\n        if(msg.sender == player1.playerAddress) {\r\n            player1.playerAddress.transfer(player1.balanceToWithdraw);\r\n        } else if (msg.sender == player2.playerAddress) {\r\n            player2.playerAddress.transfer(player2.balanceToWithdraw);\r\n        } else {\r\n            revert();\r\n        }\r\n\r\n    }\r\n\r\n    function getBoard() public view returns (address[3][3]) {\r\n        return board;\r\n    }\r\n\r\n    function setWinner(address _winner) private {\r\n        gameEnded = true;\r\n\r\n        uint balanceToSend = this.balance;\r\n\r\n        if(_winner.send(balanceToSend) != true) {\r\n            if(_winner == player1.playerAddress) {\r\n                player1.balanceToWithdraw = this.balance;\r\n            } else {\r\n                player2.balanceToWithdraw = this.balance;\r\n            }\r\n        } else {\r\n            PayOutSuccess(_winner, balanceToSend);\r\n            GameOverWithWin(_winner);\r\n        }\r\n    }\r\n\r\n    function emergencyCashoutAfterTimeout() public {\r\n      assert(gameValidUntil < now);\r\n      assert(gameEnded == false);\r\n\r\n      setDraw();\r\n    }\r\n\r\n    function setDraw() private {\r\n        gameEnded = true;\r\n        uint balanceToSendEachPlayer = this.balance / 2 - 1;\r\n        if(player1.playerAddress.send(balanceToSendEachPlayer) != true) {\r\n          player1.balanceToWithdraw = balanceToSendEachPlayer;\r\n        } else {\r\n          PayOutSuccess(player1.playerAddress, balanceToSendEachPlayer);\r\n        }\r\n\r\n        if(player2.playerAddress.send(balanceToSendEachPlayer) != true) {\r\n          player2.balanceToWithdraw = balanceToSendEachPlayer;\r\n        } else {\r\n          PayOutSuccess(player2.playerAddress, balanceToSendEachPlayer);\r\n        }\r\n        GameOverWithDraw(player1.playerAddress, player2.playerAddress);\r\n    }\r\n\r\n    function setStone(uint8 x, uint8 y) public {\r\n        assert(x < 3 && y < 3);\r\n        assert(board[x][y] == address(0));\r\n        assert(gameEnded != true); //game still on?\r\n\r\n        /**\r\n         * Double Entry Attack Prevention\r\n         * */\r\n        assert(moveActive != true);\r\n        moveActive = true;\r\n\r\n\r\n        require(msg.sender == activePlayer);\r\n        board[x][y] = activePlayer;\r\n        moveCount++;\r\n\r\n\r\n         //check end conditions\r\n\r\n        //check column\r\n        for(uint8 i = 0; i < boardSize; i++){\r\n            if(board[x][i] != activePlayer) {\r\n                break;\r\n            }\r\n            if(i == boardSize-1){\r\n                setWinner(activePlayer);\r\n                return;\r\n            }\r\n        }\r\n\r\n        //check row\r\n        for(i = 0; i < boardSize; i++){\r\n            if(board[i][y] != activePlayer) {\r\n                break;\r\n            }\r\n            if(i == boardSize-1){\r\n                setWinner(activePlayer);\r\n                return;\r\n            }\r\n        }\r\n\r\n        //check diagonale\r\n        if(x == y){\r\n            for(i = 0; i < boardSize; i++){\r\n                if(board[i][i] != activePlayer) {\r\n                    break;\r\n                }\r\n                if(i == boardSize-1){\r\n                    setWinner(activePlayer);\r\n                    return;\r\n                }\r\n            }\r\n        }\r\n\r\n        //check counter diagonale\r\n        if(x + y == boardSize - 1){\r\n            for(i = 0; i < boardSize; i++){\r\n                if(board[i][(boardSize-1)-i] != activePlayer) {\r\n                    break;\r\n                }\r\n                if(i == boardSize-1){\r\n                    setWinner(activePlayer);\r\n                    return;\r\n                }\r\n            }\r\n        }\r\n\r\n        //check draw\r\n        if(moveCount == (boardSize**2)){\r\n            setDraw();\r\n            return;\r\n        }\r\n\r\n        //determine the next player\r\n        if(activePlayer == player1.playerAddress) {\r\n            activePlayer = player2.playerAddress;\r\n        } else {\r\n            activePlayer = player1.playerAddress;\r\n        }\r\n        NextPlayer(activePlayer);\r\n        //unlock\r\n        moveActive = false;\r\n\r\n        gameValidUntil = now + 3 minutes;\r\n    }\r\n}\r\n",
  "sourcePath": "D:\\Courses\\ethereum4-tictactoe\\contracts\\TicTacToe.sol",
  "compiler": {
    "name": "solc",
    "version": "0.4.18+commit.9cf6e910.Emscripten.clang"
  },
  "schemaVersion": "1.0.1",
  "updatedAt": "2018-01-10T07:04:26.995Z"
}